:100000000C942A000C9447000C9447000C94470071
:100010000C9447000C9447000C9447000C94470044
:100020000C9447000C9447000C9447000C94470034
:100030000C9447000C9449000C9447000C94470022
:100040000C9447000C9447000C9447000C94470014
:100050000C94470011241FBECFE5D8E0DEBFCDBF12
:1000600010E0A0E6B0E0E8E6F2E002C005900D92F4
:10007000A636B107D9F720E0A6E6B0E001C01D9290
:10008000AE36B207E1F70E9490000C9432010C9456
:1000900000001F920F920FB60F9211248F939F931F
:1000A0008CB180936D008133A1F018F4803331F06E
:1000B00026C08136C9F08236E9F021C01092640072
:1000C0001092630081E090E090936C0080936B004D
:1000D00016C081E090E09093640080936300909359
:1000E0006C0080936B000BC081E08093690080936B
:1000F0006A0005C01092690081E080936A009F91B8
:100100008F910F900FBE0F901F90189590BD89B9D9
:100110001BB88AB188618AB9579A86E880BD08956C
:100120008FEF8ABB87BB14BA81E088BB8BBB83E3AC
:1001300090E00E948600789441E330E7E2E770E3C4
:1001400021E062E651E6999B04C020936000209371
:100150006600999904C01092600010926600809128
:10016000600090916800891721F0209367008093C8
:1001700068008FEC97E00197F1F700C000008091D4
:10018000610090916200019791F4809163009091D9
:100190006400019741F44CB98FEC97E00197F1F7B7
:1001A00000C000003CB91092620010926100809182
:1001B0006B0090916C000197C1F580916300909164
:1001C0006400892BA1F4C098D898D99AC29A8FEC70
:1001D00097E00197F1F700C00000989B7CB99999CE
:1001E000ECB98FEC97E00197F1F700C00000809127
:1001F0006300909164000197A1F4C09AD89AD998AD
:10020000C2988FEC97E00197F1F700C00000989931
:100210004CB9999B3CB98FEC97E00197F1F700C07E
:10022000000010926C0010926B0080916A0088238D
:1002300009F489CF80916900882349F0C1988FEC37
:1002400097E00197F1F700C000005CB908C0C19ABF
:100250008FEC97E00197F1F700C000006CB91092A5
:080260006A0071CFF894FFCF92
:060268000101000100008D
:00000001FF
